S01B00002E2F44656275672F666C6970666C6F705F6972712E7331395F
S315200000000248854600F072F8FEE7C04600C001208F
S3152000001080B500AF1C4B00221A601C4B1B4A12688D
S315200000201B490A401A60194B184A126819490A4393
S315200000301A60194B184A1268802189000A431A60EF
S31520000040164B164A126816490A401A60134B134A71
S3152000005012688021C9010A431A60124B114A12689C
S3152000006008210A431A60104B0F4A126808210A43D6
S315200000701A600E4B1B680D4B00221A600C4B0D4A62
S315200000801A60C046BD4680BD00100240000C0240EA
S31520000090555500005555555500E100E008380140FA
S315200000A0FF0FFFFF003C01400C3C0140083C014093
S315200000B064C00120B900002080B500AF094B1B6841
S315200000C0082213400AD0084B1B685A1C064B1A609C
S315200000D0044B044A126808210A431A60C046BD46EA
S315200000E080BDC046143C01400801002080B500AF09
S315200000F0FFF78EFF024A034B1B68DBB21370F9E74A
S31120000100140C0240080100200000000042
S70520000000DA
