S01300002E2F44656275672F504F4E472E7331393A
S315200000000248854600F060FFFEE7C04600C001209A
S3152000001080B584B000AF0200FB1D1A70124A0F2370
S31520000020FB18127D1A700F23FB180F22BA181278AC
S3152000003004218A431A70FB1D1B785BB2042293436A
S315200000405AB20F23FB181B785BB213435AB20F2305
S31520000050FB181A70044A0F23FB181B781375C04629
S31520000060BD4604B080BDC0460010024080B584B0B5
S3152000007000AF0200FB1D1A70114A0F23FB18127DD8
S315200000801A700F23FB180F22BA18127804218A43FC
S315200000901A70FB1D1B785BB2DB435BB20F22BA18CA
S315200000A0127852B213405AB20F23FB181A70044A20
S315200000B00F23FB181B781375C046BD4604B080BDC0
S315200000C00010024080B582B000AF0200FB1D1A70FE
S315200000D0FB1D1B78082B0CD002DC002B05D01AE068
S315200000E0102B0DD0182B12D015E01820FFF7BEFFCD
S315200000F011E00820FFF78CFF1020FFF7B7FF0AE07A
S315200001001020FFF785FF0820FFF7B0FF03E0182037
S31520000110FFF77EFFC046C046BD4602B080BD80B513
S3152000012000AF4020FFF774FF0A2000F00EFC782075
S31520000130FFF79CFF1E2000F022FC2020FFF768FF1F
S31520000140642000F01CFC18213E2000F0DFF8182166
S315200001503F2000F0DBF81821C02000F0D7F8182146
S31520000160402000F0D3F81821B82000F0CFF8002066
S31520000170FFF7A8FFC046BD4680BD80B582B000AF60
S315200001804020FFF773FF144B144A1A600120FFF733
S315200001906DFF0220FFF73CFF00F0CEFB4020FFF76B
S315200001A037FF00F0C9FB0C4B5B7CDAB2FB1D7F21CD
S315200001B08A431A704020FFF759FF00F0BDFBFB1D54
S315200001C01B78002B00D0E9E7C046034B044A1A608F
S315200001D0C046BD4602B080BD001002405555000005
S315200001E05555555580B584B000AF0200FB1D1A70D9
S315200001F04020FFF73BFF1C4B1C4A1A600320FFF7E9
S3152000020007FFFB1D1B781800FFF75CFF00F094FB2F
S315200002104020FFF7FDFE00F08FFB134A0F23FB184B
S31520000220527C1A704020FFF721FF0F4B104A1A60AC
S31520000230FB1D1B780822134004D00820FFF742FF3D
S31520000240FFF79BFFFB1D1B781022134004D01020C4
S31520000250FFF738FFFFF791FF0F23FB181B781800D5
S31520000260BD4604B080BDC046001002405555000072
S315200002705555555580B582B000AF0200FB1D1A704A
S31520000280FB1D1B781800FFF7ADFFFB1D1B78180020
S31520000290FFF7A8FF03001800BD4602B080BD80B559
S315200002A082B000AF0200FB1D1A70BB1D0A1C1A701B
S315200002B0154AFB1D1B785375BB1D1B781800FFF7CD
S315200002C001FF00F039FB4020FFF7A2FE00F034FBCF
S315200002D04020FFF7CBFEBB1D1B780822134004D01D
S315200002E00820FFF7EFFEFFF748FFBB1D1B78102203
S315200002F0134004D01020FFF7E5FEFFF73EFFC0466F
S31520000300BD4602B080BDC0460010024080B582B016
S3152000031000AF0200FB1D1A70BB1D0A1C1A7040207C
S31520000320FFF7A4FEBB1D1B781800FFF7CBFE0320AA
S31520000330FFF79CFEBB1D1A78FB1D1B7811001800C9
S31520000340FFF7ADFFC046BD4602B080BD80B582B086
S3152000035000AF0200FB1D1A70BB1D0A1C1A7040203C
S31520000360FFF784FEBB1D1B781800FFF7ABFE0120AC
S31520000370FFF74EFE0220FFF779FEBB1D1A78FB1D04
S315200003801B7811001800FFF78AFFC046BD4602B051
S3152000039080BD80B582B000AFBB1D00221A7023E05D
S315200003A0BB1D1B78482252421343DBB2182118008A
S315200003B0FFF7ACFF18214020FFF7A8FFFB1D002206
S315200003C01A7008E018210020FFF7C0FFFB1D1A78DD
S315200003D0FB1D01321A70FB1D1B783F2BF2D9BB1D6A
S315200003E01A78BB1D01321A70BB1D1B78072BD7D973
S315200003F0C046BD4602B080BD90B589B000AFF8605A
S31520000400B9607A60FB68002B00DCBCE0BB68002B7F
S3152000041000DCB8E0FB68802B00DDB4E0BB68402B35
S3152000042000DDB0E0BB68013B002B00DA0733DB10B0
S31520000430BB61BB68013B564A134004D5013B0822E9
S31520000440524213430133072B2CD89A00514BD31811
S315200004501B689F461F23FB1801221A7022E01F23C8
S31520000460FB1802221A701DE01F23FB1804221A70A3
S3152000047018E01F23FB1808221A7013E01F23FB180D
S3152000048010221A700EE01F23FB1820221A7009E092
S315200004901F23FB1840221A7004E01F23FB1880221A
S315200004A01A70C0467B68002B06D11F23FB181F221B
S315200004B0BA181278D2431A70FB68402B07DD1E2328
S315200004C0FB1810221A70FB68413BFB6006E01E23D6
S315200004D0FB1808221A70FB68013BFB60FB685BB2C5
S315200004E0402213435BB2DAB21E23FB181B78190095
S315200004F01000FFF70BFFBB695BB248225242134341
S315200005005BB2DAB21E23FB181B7819001000FFF726
S31520000510FDFE1723FC181E23FB181B781800FFF777
S31520000520A9FE03002370FB685BB2402213435BB233
S31520000530DAB21E23FB181B7819001000FFF7E6FE1F
S315200005407B68002B0AD01F23FB181F22B9181722FD
S31520000550BA18097812780A431A7009E01F23FB1883
S315200005601F22BA1817217918127809780A401A70AA
S315200005701E23FB181A781F23FB181B78110018005E
S31520000580FFF7E4FE00E0C046BD4609B090BDC04678
S3152000059007000080DC11002090B583B000AF7860A2
S315200005A07B68DB68002B22DC664B5B685A1C654B3C
S315200005B05A6000F0D7FB644B5B6830331900634BFD
S315200005C00122180000F0D6FB5E4B5B683033190021
S315200005D05F4B0222180000F0CDFB7B685B6A7868CF
S315200005E0202240219847C82000F0C9F9A5E07B6861
S315200005F0DB68802B22DD544B5B685A1C524B5A60B9
S3152000060000F0B0FB504B5B68303319004F4B012292
S31520000610180000F0AFFB4B4B5B68303319004C4B96
S315200006200222180000F0A6FB7B685B6A786820220D
S3152000063040219847C82000F0A2F97EE07B681B691C
S31520000640022B08DD7B681A697B681B689B68402142
S31520000650CB1A9A4205DB7B689B685A427B689A6074
S315200006606BE07B68DA68384B1B68DB6806339A4296
S315200006702DDC354B1B681B699A1E7B681B699A42C9
S3152000068025DC7B681A69304B1B6819692E4B1B6861
S315200006901B689B68CB1801339A4218DC7B68DA68A2
S315200006A0294B1B68DB68043B9A4210DD7B685B683C
S315200006B05A427B685A607B685C6A234B1B68DB68FE
S315200006C0591D7B681A697B681800A04735E07B684E
S315200006D0DA681C4B1B68DB68063B9A422DDB194BFC
S315200006E01B681B699A1E7B681B699A4225DC7B68FE
S315200006F01A69144B1B681969124B1B681B689B6887
S31520000700CB1801339A4218DC7B68DA680D4B1B68DC
S31520000710DB6804339A4210DA7B685B685A427B684E
S315200007205A607B685C6A074B1B68DB68591F7B68CD
S315200007301A697B681800A047FFE7C046BD4603B08C
S3152000074090BDC046BC1100209C110020A4110020A1
S31520000750C411002080B584B000AFF860B9607A601B
S31520000760FB68BA685A60FB687A689A60C046BD46DC
S3152000077004B080BD80B584B000AF78600023FB60F4
S315200007801CE07B68DA687B681968FB6804335B00C9
S31520000790CB1804331B78D0187B681A697B681968D4
S315200007A0FB6804335B00CB1805331B78D318012272
S315200007B01900FFF721FEFB680133FB60FB680D2B58
S315200007C0DFDDC046BD4604B080BD80B584B000AF35
S315200007D078600023FB601CE07B68DA687B68196818
S315200007E0FB6804335B00CB1804331B78D0187B6876
S315200007F01A697B681968FB6804335B00CB180533DC
S315200008001B78D31800221900FFF7F6FDFB68013389
S31520000810FB60FB680D2BDFDDC046BD4604B080BD06
S3152000082080B584B000AFF860B9607A60FB68BA68BA
S31520000830DA60FB687A681A61C046BD4604B080BD9E
S3152000084080B582B000AF78607B681800FFF7BDFFE7
S315200008507B689B6A7A68100098477B68DA687B68B1
S315200008605B68D2187B68DA607B681A697B689B684C
S31520000870D2187B681A617B681800FFF77BFFC04699
S31520000880BD4602B080BD80B582B000AF78607B687F
S315200008901800FFF79AFF7B681B69032B0BDD7B682B
S315200008A09B68002B07DA7B681A697B689B68D218DD
S315200008B07B681A6113E07B681A697B681B689B68F2
S315200008C03E21CB1A9A420ADA7B689B68002B06DD0A
S315200008D07B681A697B689B68D2187B681A617B687B
S315200008E000229A607B681800FFF744FFC046BD4689
S315200008F002B080BD80B500AF0C4B00221A600C4BB5
S3152000090029221A600B4B00221A60084B05221A6016
S31520000910C046064B1A6880235B021340F9D0034B6E
S3152000092000221A60C046BD4680BDC04610E000E0E9
S3152000093014E000E018E000E080B500AFFFF7DAFF32
S31520000940FFF7D8FFC046BD4680BD80B584B000AF56
S3152000095078600023FB600AE0FFF7CCFFFFF7CAFFB1
S31520000960FFF7C8FFFFF7C6FFFB680133FB60FA6895
S315200009707B689A42F0D3C046BD4604B080BD80B5A0
S3152000098082B000AF78607B68FA2292005343180049
S31520000990FFF7DBFFC046BD4602B080BD80B582B002
S315200009A000AF01237B6019E07B68180000F024F873
S315200009B000F04EF803003B603B68002B0BD0002074
S315200009C000F01AF87B68013B9A003B68013BD3187C
S315200009D0084AD35C09E07B6801337B607B68042B83
S315200009E0E2DD002000F008F8FF231800BD4602B023
S315200009F080BDC046B810002080B582B000AF02008E
S31520000A00FB1D1A70FB1D1B78042B18D89A000E4B61
S31520000A10D3181B689F460D4B10225A750FE00B4BBF
S31520000A2020225A750BE0094B40225A7507E0074BE6
S31520000A3080225A7503E0054B00225A75C046C046EF
S31520000A40BD4602B080BDC046FC110020000C02400D
S31520000A5080B582B000AF124AFB1D527C1A70FB1D76
S31520000A601B780822134001D0042315E0FB1D1B78B8
S31520000A700422134001D003230EE0FB1D1B78022223
S31520000A80134001D0022307E0FB1D1B7801221340EF
S31520000A9001D0012300E000231800BD4602B080BD2E
S31520000AA0000C024080B582B000AF0200FB1D1A7018
S31520000AB0FB1D1B780F2B03D9064B00221A7505E068
S31520000AC00449FB1D1B78044AD35C0B75C046BD4602
S31520000AD002B080BD000C0240A810002080B500AFF7
S31520000AE0C04600F0FFF803001A0080231340802B35
S31520000AF0F7D00820FFF729FF382000F0AFF827208D
S31520000B00FFF723FF0E2000F0A9F82720FFF71DFF8F
S31520000B10062000F0A3F82720FFF717FFC046BD46A2
S31520000B2080BD80B584B000AF786039607B68013BBA
S31520000B30FB603B68022B02D1FB684033FB60FB68FD
S31520000B405BB28022524213435BB2DBB2180000F044
S31520000B5085F8C046BD4604B080BD80B582B000AFE2
S31520000B600200FB1D1A70C04600F0BCF803001A00F4
S31520000B7080231340802BF7D00820FFF7E6FEFB1DCD
S31520000B801B78180000F07FF82B20FFF7DEFEC0460A
S31520000B90BD4602B080BD80B584B000AF0200FB1D0B
S31520000BA01A700D4A0F23FB18127D1A70FA1D0F2397
S31520000BB0FB1812781B781343DAB20F23FB18042193
S31520000BC00A431A70044A0F23FB181B781375C04674
S31520000BD0BD4604B080BDC0460010024080B584B03A
S31520000BE000AF0200FB1D1A700F4A0F23FB18127D5F
S31520000BF01A70FB1D1B785BB2DB435BB20F22BA185F
S31520000C00127852B213405BB2042213435AB20F2316
S31520000C10FB181A70044A0F23FB181B781375C0465D
S31520000C20BD4604B080BDC0460010024080B582B0EB
S31520000C3000AF0200FB1D1A704020FFF7ACFF064AEA
S31520000C40FB1D1B785375FFF755FE4020FFF7C6FFA7
S31520000C50C046BD4602B080BD0010024080B582B0BD
S31520000C6000AF0200FB1D1A700120FFF7B7FF02201C
S31520000C70FFF7B4FFFB1D1B781800FFF7D7FFC04610
S31520000C80BD4602B080BD80B582B000AF0200FB1D1C
S31520000C901A700120FFF77FFF0220FFF79FFFFB1D41
S31520000CA01B781800FFF7C2FFC046BD4602B080BDC4
S31520000CB080B582B000AF4020FFF76DFFFFF71AFE28
S31520000CC0FFF718FE064AFB1D527C1A704020FFF7DC
S31520000CD085FFFB1D1B781800BD4602B080BDC046AF
S31520000CE00010024090B583B000AF0B4B0B4A1A6040
S31520000CF00120FFF773FF0220FFF74DFFFC1DFFF7D2
S31520000D00D7FF03002370044B054A1A60FB1D1B788E
S31520000D101800BD4603B090BD001002405555000096
S31520000D205555555580B582B000AF0A4B0A4A1A6010
S31520000D300120FFF730FF0220FFF72DFF074AFB1D9A
S31520000D401A70044B064A1A60FB1D1B781800BD4614
S31520000D5002B080BD0010024055550000B10C0020A5
S31520000D605555555580B500AF0120FFF777FFC04692
S31520000D70BD4680BD80B582B000AF78600800110006
S31520000D80FB1C021C1A70BB1C0A1C1A70BB1C1B788D
S31520000D9019000120FFF7C5FE06E07B685A1C7A6021
S31520000DA01B781800FFF7D9FE7B681B78002BF4D13F
S31520000DB0FB1C1B787F2B04D8FB1C1B781800FFF725
S31520000DC0CCFEC046BD4602B080BD80B500AF0A4B02
S31520000DD018221A60B2488047084B094A1A60094B04
S31520000DE0094A1A60074BF02212019A80054B074ADE
S31520000DF0DA60C046BD4680BD303802400010024051
S31520000E0055555555000C0240555500550000AAAAC7
S31520000E1080B584B000AFF860B9607A60BB68002204
S31520000E205A607B6800225A60BB681B680622DA601B
S31520000E30BB681B6820221A617B681B687A22DA60ED
S31520000E407B681B6820221A61FFF7A3FAFFF78AFF47
S31520000E50194B5B68DBB23033DBB259B2174B012238
S31520000E601800FFF787FF164B5B68DBB23033DBB227
S31520000E7059B2144B02221800FFF77CFFBB681B688F
S31520000E80DA69BB681B68180090477B681B68DA69BB
S31520000E907B681B6818009047FB681B6AF86801226C
S31520000EA00221984796235B001800FFF768FDC0468D
S31520000EB0BD4604B080BDC0469C110020A411002070
S31520000EC0BC110020C411002090B58BB000AF6D4B33
S31520000ED03B626D4BFB616D4BBB61FFF776FFFFF706
S31520000EE0FDFDFFF71CF9BA69F9693B6A1800FFF79F
S31520000EF08FFF3B6ADB693A6A100098470A20FFF7A2
S31520000F003EFD1723FC18FFF749FD03002370604AB6
S31520000F101723FB181B7813751723FB181B78032B35
S31520000F202BD002DC012B05D04AE0072B14D0092B4D
S31520000F3035D045E0FB691B681C6AFB6918680223EB
S31520000F405B421A000021A047FB691B68DA69FB692E
S31520000F501B681800904733E0FB691B681C6AFB6915
S31520000F601B68022200211800A047FB691B68DA696A
S31520000F70FB691B681800904722E0BB691B681C6A46
S31520000F80BB69186802235B421A000021A047BB698F
S31520000F901B68DA69BB691B681800904710E0BB69BB
S31520000FA01B681C6ABB691B68022200211800A04727
S31520000FB0BB691B68DA69BB691B6818009047C04685
S31520000FC0FB695B68082B03DCBB695B68082B90DD3B
S31520000FD03B00304A13CA13C311681960918899805F
S31520000FE092799A712723FB1801221A70FB695B6894
S31520000FF0082B10DDFFF7B6FE01235942264B0122AE
S315200010001800FFF7B7FE012359423B0002221800C1
S31520001010FFF7B0FE2FE0BB695B68082B2BDDFFF7DF
S31520001020A1FE012359421D4B01221800FFF7A2FE03
S31520001030012359423B0002221800FFF79BFE1AE0CB
S315200010401623FC18FFF7AAFC030023702723FB189E
S315200010502722BA1812781A701623FB181B78052B2C
S3152000106009D1BA69F9693B6A1800FFF7D1FE27232F
S31520001070FB1800221A702723FB181B78002BDFD1C0
S3152000108037E7C046701100209C110020BC110020BB
S31520001090000C024010120020AE110020CE110020BC
S315200010A009020008000000003F065B4F666D7D07C1
S315200010B07F6F777C395E79710102030A0405060B7E
S315200010C00708090C0E000F0D0C000000040000009C
S315200010D004000000000100020100010101020103D9
S315200010E002000201020202030301030200000000C3
S315200010F00E000000020000000600000000000100B3
S3152000110000010101000201020003010300040104A1
S315200011100005010500060106F01000200000000071
S31520001120000000000F0000002000000075070020CE
S31520001130CB07002087080020550700202108002023
S3152000114000000000F0100020000000000000000059
S31520001150710000002000000075070020CB0700204A
S3152000116087080020550700202108002000000000E5
S31520001170C810002000000000000000004000000011
S315200011802000000075070020CB0700204108002022
S31520001190550700202108002099050020181100205D
S315200011A000000000706C61796572313A2000506C45
S315200011B061796572312077696E73000044110020D1
S315200011C000000000506C61796572323A2000504C64
S315200011D061796572322077696E73000054040020AD
S315200011E05E04002068040020720400207C04002095
S315200011F086040020900400209A040020360A00204D
S31520001200160A00201E0A0020260A00202E0A002088
S315200012105072657373203520746F20726573746104
S3092000122072740000BE
S70520000000DA
