S01400002E2F44656275672F44656C61792E7331397E
S315200000000248854600F059F8FEE7C04600C00120A8
S3152000001080B500AF024B55221A60C046BD4680BD52
S315200000200010024080B500AF0C4B00221A600C4B2A
S3152000003029221A600B4B00221A60084B05221A60EF
S31520000040C046064B1A6880235B021340F9D0034B47
S3152000005000221A60C046BD4680BDC04610E000E0C2
S3152000006014E000E018E000E080B584B000AF7860CE
S315200000700023FB600AE0FFF7D5FFFFF7D3FFFFF76A
S31520000080D1FFFFF7CFFFFB680133FB60FA687B687F
S315200000909A42F0D3C046BD4604B080BD80B582B03A
S315200000A000AF78607B68FA22920053431800FFF76E
S315200000B0DBFFC046BD4602B080BD80B500AFFFF76E
S315200000C0A7FF084B00221A60FA235B001800FFF7EF
S315200000D0E5FF044BFF221A60FA235B001800FFF7A6
S30D200000E0DDFFEEE714100240DB
S70520000000DA
