S01C00002E2F44656275672F666C6970666C6F705F697271322E7331392C
S315200000000248854600F0A2F8FEE7C04600C001205F
S3152000001080B500AF1D4B00221A601D4B1B681C4B80
S3152000002000221A601A4B1A4A12681A490A431A60A1
S31520000030194B00221A70194B184A12688021890020
S315200000400A431A60164B174A1A60174B164A12684B
S31520000050120C12041A60144B134A126813490A43ED
S315200000601A60134B124A12680F210A431A60114B69
S31520000070104A12680F210A431A600F4B1B680E4B59
S3152000008000221A60C046BD4680BDC0460010024010
S31520000090000C024055555555150C024000E100E074
S315200000A064C00120BD0000200838014044440000FF
S315200000B0003C01400C3C0140083C014080B500AFAB
S315200000C01F4B1B680822134037D01D4B1B6801228B
S315200000D013400BD01A4B1A4A126801210A431A60A0
S315200000E0184B1B685A1C174B1A6020E0144B1B68D0
S315200000F00222134009D0124B114A126802210A43E8
S315200001001A60104B00221A6011E00D4B1B68042266
S3152000011013400CD00A4B0A4A126804210A431A607B
S31520000120094A094B1B78DBB2DB43DBB21370044B65
S31520000130034A126808210A431A60C046BD4680BD9C
S31520000140143C014068010020150C024080B500AF28
S31520000150FFF75EFF024A034B1B68DBB21370F9E719
S31120000160140C0240680100200000000082
S70520000000DA
