S01500002E2F44656275672F4B65795061642E7331392E
S315200000000248854600F0BCF8FEE7C04600C0012045
S3152000001080B500AF064B074A1A60074BF022120143
S315200000201A80064BAA2212061A60C046BD4680BD1B
S31520000030000C024055550055080C0240300C024079
S3152000004080B582B000AF01237B6019E07B68180081
S3152000005000F024F800F04EF803003B603B68002BCC
S315200000600BD0002000F01AF87B68013B9A003B6811
S31520000070013BD318084AD35C09E07B6801337B60D7
S315200000807B68042BE2DD002000F008F8FF2318002F
S31520000090BD4602B080BDC046A801002080B582B012
S315200000A000AF0200FB1D1A70FB1D1B78042B18D80D
S315200000B09A000E4BD3181B689F460D4B10221A70C0
S315200000C00FE00B4B20221A700BE0094B40221A70CE
S315200000D007E0074B80221A7003E0054B00221A70B6
S315200000E0C046C046BD4602B080BDC046B80100200D
S315200000F0150C024080B582B000AF124AFB1D127863
S315200001001A70FB1D1B780822134001D0042315E02A
S31520000110FB1D1B780422134001D003230EE0FB1D98
S315200001201B780222134001D0022307E0FB1D1B7817
S315200001300122134001D0012300E000231800BD4610
S3152000014002B080BD110C024080B582B000AF020023
S31520000150FB1D1A70FB1D1B780F2B03D9064B0022A3
S315200001601A7005E00449FB1D1B78044AD35C0B700A
S31520000170C046BD4602B080BD140C02409801002046
S3152000018080B500AFFFF744FFFFF75AFF03001800C2
S31520000190FFF7DAFFF8E7C0463F065B4F666D7D073F
S315200001A07F6F777C395E79710102030A0405060B9D
S315200001B00708090C0E000F0DDA000020BA000020F7
S311200001C0C2000020CA000020D20000204F
S70520000000DA
