S01F00002E2F44656275672F666C6970666C6F705F6972715F7665632E733139BE
S315200000000248854600F0CAF8FEE7C04600C0012037
S3152000001080B500AF324B00221A60324B314A12684B
S3152000002031490A401A602F4B2E4A12682F490A433B
S315200000301A602F4B00221A702E4B2E4A12688021EE
S3152000004049000A431A602B4B2A4A126880210A4328
S315200000501A60284B274A126840210A431A60264B09
S31520000060264A1A60264B274A1A60274B274A1A60C7
S31520000070274B274A1268120C12041A60244B244A72
S31520000080126824490A431A60234B234A1268042122
S315200000900A431A60204B204A126802210A431A603A
S315200000A01D4B1D4A126801210A431A601B4B1B4A2D
S315200000B0126804210A431A60184B184A1268022152
S315200000C00A431A60154B154A126801210A431A6021
S315200000D0134B1B68124B00221A60C046BD4680BDDA
S315200000E000100240000C024055550000555555554C
S315200000F0150C024000E100E058C001202501002037
S315200001005CC001204D01002060C00120710100204B
S315200001100838014044440000003C01400C3C0140AA
S31520000120083C014080B500AF064B064A1268012103
S315200001300A431A60044B1B685A1C034B1A60C046BC
S31520000140BD4680BD143C0140B801002080B500AFFB
S31520000150054B054A126802210A431A60034B002206
S315200001601A60C046BD4680BD143C0140B80100203F
S3152000017080B500AF074B074A126804210A431A606C
S31520000180054A054B1B78DBB2DB43DBB21370C04656
S31520000190BD4680BD143C0140150C024080B500AF21
S315200001A0FFF736FF024A034B1B68DBB21370F9E7F1
S311200001B0140C0240B801002000000000E2
S70520000000DA
