S01700002E2F44656275672F6175746F706F6E672E733139FD
S315200000000248854600F0CDFBFEE7C04600C0012031
S3152000001080B500AF024B034A1A60C046BD4680BD7C
S31520000020001002405555555580B584B000AF0200EA
S31520000030FB1D1A70124A0F23FB1812781A700F2311
S31520000040FB180F22BA18127804218A431A70FB1D56
S315200000501B785BB2042293435AB20F23FB181B78FA
S315200000605BB213435AB20F23FB181A70044A0F23AC
S31520000070FB181B781370C046BD4604B080BDC04631
S315200000801410024080B584B000AF0200FB1D1A7028
S31520000090114A0F23FB1812781A700F23FB180F2210
S315200000A0BA18127804218A431A70FB1D1B785BB29A
S315200000B0DB435BB20F22BA18127852B213405AB2FF
S315200000C00F23FB181A70044A0F23FB181B78137092
S315200000D0C046BD4604B080BD1410024080B582B033
S315200000E000AF0200FB1D1A70FB1D1B78082B0CD0DD
S315200000F002DC002B05D01AE0102B0DD0182B12D0C5
S3152000010015E01820FFF7BEFF11E00820FFF78CFF4F
S315200001101020FFF7B7FF0AE01020FFF785FF082021
S31520000120FFF7B0FF03E01820FFF77EFFC046C0466A
S31520000130BD4602B080BD80B500AF4020FFF774FFFA
S315200001400A2000F008FB7820FFF79CFF1E2000F015
S315200001501CFB2020FFF768FF642000F016FB182107
S315200001603E2000F0E3F818213F2000F0DFF81821A8
S31520000170C02000F0DBF81821402000F0D7F8182125
S31520000180B82000F0D3F80020FFF7A8FFC046BD46F0
S3152000019080BD80B582B000AF4020FFF773FF144BBF
S315200001A0144A1A600120FFF76DFF0220FFF73CFF7B
S315200001B000F0C8FA4020FFF737FF00F0C3FA0E4BD5
S315200001C01B78DAB2FB1D7F218A431A704020FFF785
S315200001D059FF00F0B7FAFB1D1B78002B00D0E9E78A
S315200001E0C046034B054A1A60C046BD4602B080BDD4
S315200001F00010024055550000111002405555555526
S3152000020080B584B000AF0200FB1D1A704020FFF7B6
S3152000021039FF1C4B1C4A1A600320FFF705FFFB1D04
S315200002201B781800FFF75AFF00F08CFA4020FFF7E2
S31520000230FBFE00F087FA154A0F23FB1812781A7076
S315200002404020FFF71FFF0F4B114A1A60FB1D1B783A
S315200002500822134004D00820FFF740FFFFF799FF3C
S31520000260FB1D1B781022134004D01020FFF736FF09
S31520000270FFF78FFF0F23FB181B781800BD4604B02D
S3152000028080BDC046001002405555000011100240A6
S315200002905555555580B582B000AF0200FB1D1A702A
S315200002A0FB1D1B781800FFF7ABFFFB1D1B78180002
S315200002B0FFF7A6FF03001800BD4602B080BD80B53B
S315200002C082B000AF0200FB1D1A70BB1D0A1C1A70FB
S315200002D0154AFB1D1B781370BB1D1B781800FFF7F2
S315200002E0FDFE00F02FFA4020FFF79EFE00F02AFACE
S315200002F04020FFF7C7FEBB1D1B780822134004D001
S315200003000820FFF7EBFEFFF744FFBB1D1B781022EA
S31520000310134004D01020FFF7E1FEFFF73AFFC04656
S31520000320BD4602B080BDC0461510024080B582B0E1
S3152000033000AF0200FB1D1A70BB1D0A1C1A7040205C
S31520000340FFF7A0FEBB1D1B781800FFF7C7FE032092
S31520000350FFF798FEBB1D1A78FB1D1B7811001800AD
S31520000360FFF7ADFFC046BD4602B080BD80B582B066
S3152000037000AF0200FB1D1A70BB1D0A1C1A7040201C
S31520000380FFF780FEBB1D1B781800FFF7A7FE012094
S31520000390FFF74AFE0220FFF775FEBB1D1A78FB1DEC
S315200003A01B7811001800FFF78AFFC046BD4602B031
S315200003B080BD80B582B000AFBB1D00221A7023E03D
S315200003C0BB1D1B78482252421343DBB2182118006A
S315200003D0FFF7ACFF18214020FFF7A8FFFB1D0022E6
S315200003E01A7008E018210020FFF7C0FFFB1D1A78BD
S315200003F0FB1D01321A70FB1D1B783F2BF2D9BB1D4A
S315200004001A78BB1D01321A70BB1D1B78072BD7D952
S31520000410C046BD4602B080BD90B589B000AFF86039
S31520000420B9607A60FB68002B00DCBCE0BB68002B5F
S3152000043000DCB8E0FB68802B00DDB4E0BB68402B15
S3152000044000DDB0E0BB68013B002B00DA0733DB1090
S31520000450BB61BB68013B564A134004D5013B0822C9
S31520000460524213430133072B2CD89A00514BD318F1
S315200004701B689F461F23FB1801221A7022E01F23A8
S31520000480FB1802221A701DE01F23FB1804221A7083
S3152000049018E01F23FB1808221A7013E01F23FB18ED
S315200004A010221A700EE01F23FB1820221A7009E072
S315200004B01F23FB1840221A7004E01F23FB188022FA
S315200004C01A70C0467B68002B06D11F23FB181F22FB
S315200004D0BA181278D2431A70FB68402B07DD1E2308
S315200004E0FB1810221A70FB68413BFB6006E01E23B6
S315200004F0FB1808221A70FB68013BFB60FB685BB2A5
S31520000500402213435BB2DAB21E23FB181B78190074
S315200005101000FFF70BFFBB695BB248225242134320
S315200005205BB2DAB21E23FB181B7819001000FFF706
S31520000530FDFE1723FC181E23FB181B781800FFF757
S31520000540A9FE03002370FB685BB2402213435BB213
S31520000550DAB21E23FB181B7819001000FFF7E6FEFF
S315200005607B68002B0AD01F23FB181F22B9181722DD
S31520000570BA18097812780A431A7009E01F23FB1863
S315200005801F22BA1817217918127809780A401A708A
S315200005901E23FB181A781F23FB181B78110018003E
S315200005A0FFF7E4FE00E0C046BD4609B090BDC04658
S315200005B0070000803008002080B584B000AFF860C6
S315200005C0B9607A60FB68BA685A60FB687A689A6094
S315200005D0C046BD4604B080BD80B584B000AF78600B
S315200005E00023FB601CE07B68DA687B681968FB687F
S315200005F004335B00CB1804331B78D0187B681A6948
S315200006007B681968FB6804335B00CB1805331B78BD
S31520000610D31801221900FFF7FFFEFB680133FB60A8
S31520000620FB68132BDFDDC046BD4604B080BD80B518
S3152000063084B000AF78600023FB601CE07B68DA683A
S315200006407B681968FB6804335B00CB1804331B787E
S31520000650D0187B681A697B681968FB6804335B00CD
S31520000660CB1805331B78D31800221900FFF7D4FEC8
S31520000670FB680133FB60FB68132BDFDDC046BD46FC
S3152000068004B080BD80B582B000AF78607B6818006A
S31520000690FFF7CDFF7B68DA687B685B68D2187B68DA
S315200006A0DA607B681A697B689B68D2187B681A6156
S315200006B07B68DB68002B03DD7B68DB68802B05DD30
S315200006C07B685B685A427B685A6011E07B681B69CD
S315200006D0002B08DD7B681A697B681B689B68802174
S315200006E0CB1A9A4204DD7B689B685A427B689A60E3
S315200006F07B681800FFF770FFC046BD4602B080BD7C
S3152000070080B500AF0C4B00221A600C4B29221A60D0
S315200007100B4B00221A60084B05221A60C046064B76
S315200007201A6880235B021340F9D0034B00221A601B
S31520000730C046BD4680BDC04610E000E014E000E0A3
S3152000074018E000E080B500AFFFF7DAFFFFF7D8FF2B
S31520000750C046BD4680BD80B584B000AF786000231A
S31520000760FB600AE0FFF7CCFFFFF7CAFFFFF7C8FFE1
S31520000770FFF7C6FFFB680133FB60FA687B689A4285
S31520000780F0D3C046BD4604B080BD80B582B000AF70
S3152000079078607B681800FFF7DEFFC046BD4602B0D2
S315200007A080BD80B582B000AF0A4B7B60FFF730FC7E
S315200007B0FFF7C1FC7B681B6A7868022204219847F0
S315200007C07B68DB697A68100098472820FFF7DDFFF1
S315200007D0F6E7C0460C0800200C00000004000000CC
S315200007E004000000000100020100010101020103D2
S315200007F002000201020202030301030200000000BC
S31520000800000000000000000000000000D8070020C3
S3152000081000000000000000000100000001000000B0
S31520000820D90500202F06002085060020B9050020C6
S31520000830740400207E0400208804002092040020F6
S315200008409C040020A6040020B0040020BA04002046
S70520000000DA
